******************************************************************************
                  TI ARM Linker PC v20.2.1                     
******************************************************************************
>> Linked Fri Oct  2 18:25:34 2020

OUTPUT FILE NAME:   <Laboratory_1.out>
ENTRY POINT SYMBOL: "_c_int00_noargs"  address: 0000087d


MEMORY CONFIGURATION

         name            origin    length      used     unused   attr    fill
----------------------  --------  ---------  --------  --------  ----  --------
  MAIN                  00000000   00040000  00000910  0003f6f0  R  X
  INFO                  00200000   00004000  00000000  00004000  R  X
  SRAM_CODE             01000000   00010000  00000204  0000fdfc  RW X
  SRAM_DATA             20000000   00010000  00000204  0000fdfc  RW  


SEGMENT ALLOCATION MAP

run origin  load origin   length   init length attrs members
----------  ----------- ---------- ----------- ----- -------
00000000    00000000    00000910   00000910    r-x
  00000000    00000000    000000e4   000000e4    r-- .intvecs
  000000e4    000000e4    00000814   00000814    r-x .text
  000008f8    000008f8    00000018   00000018    r-- .cinit
20000000    20000000    00000004   00000000    rw-
  20000000    20000000    00000004   00000000    rw- .data
2000fe00    2000fe00    00000200   00000000    rw-
  2000fe00    2000fe00    00000200   00000000    rw- .stack


SECTION ALLOCATION MAP

 output                                  attributes/
section   page    origin      length       input sections
--------  ----  ----------  ----------   ----------------
.intvecs   0    00000000    000000e4     
                  00000000    000000e4     startup_msp432p401r_ccs.obj (.intvecs:retain)

.text      0    000000e4    00000814     
                  000000e4    00000334     system_msp432p401r.obj (.text)
                  00000418    00000108     ADC.obj (.text)
                  00000520    00000104     timer.obj (.text)
                  00000624    000000c0     PWM.obj (.text)
                  000006e4    0000009c     rtsv7M4_T_le_v4SPD16_eabi.lib : memcpy_t2.asm.obj (.text)
                  00000780    00000068                                   : copy_decompress_lzss.c.obj (.text:decompress:lzss:__TI_decompress_lzss)
                  000007e8    00000050     joystick.obj (.text)
                  00000838    00000044     rtsv7M4_T_le_v4SPD16_eabi.lib : autoinit.c.obj (.text:__TI_auto_init_nobinit_nopinit:__TI_auto_init_nobinit_nopinit)
                  0000087c    00000034                                   : boot_cortex_m.c.obj (.text:_c_int00_noargs:_c_int00_noargs)
                  000008b0    00000024     main.obj (.text)
                  000008d4    0000000e     rtsv7M4_T_le_v4SPD16_eabi.lib : copy_decompress_none.c.obj (.text:decompress:none:__TI_decompress_none)
                  000008e2    0000000e     startup_msp432p401r_ccs.obj (.text)
                  000008f0    00000004     rtsv7M4_T_le_v4SPD16_eabi.lib : pre_init.c.obj (.text:_system_pre_init)
                  000008f4    00000004                                   : exit.c.obj (.text:abort:abort)

.cinit     0    000008f8    00000018     
                  000008f8    00000008     (.cinit..data.load) [load image, compression = lzss]
                  00000900    00000008     (__TI_handler_table)
                  00000908    00000008     (__TI_cinit_table)

.init_array 
*          0    00000000    00000000     UNINITIALIZED

.binit     0    00000000    00000000     

.data      0    20000000    00000004     UNINITIALIZED
                  20000000    00000004     system_msp432p401r.obj (.data)

.stack     0    2000fe00    00000200     UNINITIALIZED
                  2000fe00    00000004     rtsv7M4_T_le_v4SPD16_eabi.lib : boot_cortex_m.c.obj (.stack)
                  2000fe04    000001fc     --HOLE--

__llvm_prf_cnts 
*          0    20000000    00000000     UNINITIALIZED

MODULE SUMMARY

       Module                        code   ro data   rw data
       ------                        ----   -------   -------
    .\
       system_msp432p401r.obj        820    0         8      
       startup_msp432p401r_ccs.obj   14     228       0      
    +--+-----------------------------+------+---------+---------+
       Total:                        834    228       8      
                                                             
    .\Sources\
       ADC.obj                       264    0         0      
       timer.obj                     260    0         0      
       PWM.obj                       192    0         0      
       joystick.obj                  80     0         0      
       main.obj                      36     0         0      
    +--+-----------------------------+------+---------+---------+
       Total:                        832    0         0      
                                                             
    D:\Programmes\TI\ccs\tools\compiler\ti-cgt-arm_20.2.1.LTS\lib\rtsv7M4_T_le_v4SPD16_eabi.lib
       memcpy_t2.asm.obj             156    0         0      
       copy_decompress_lzss.c.obj    104    0         0      
       autoinit.c.obj                68     0         0      
       boot_cortex_m.c.obj           52     0         0      
       copy_decompress_none.c.obj    14     0         0      
       exit.c.obj                    4      0         0      
       pre_init.c.obj                4      0         0      
    +--+-----------------------------+------+---------+---------+
       Total:                        402    0         0      
                                                             
       Stack:                        0      0         1024   
       Linker Generated:             0      24        0      
    +--+-----------------------------+------+---------+---------+
       Grand Total:                  2068   252       1032   


LINKER GENERATED COPY TABLES

__TI_cinit_table @ 00000908 records: 1, size/record: 8, table size: 8
	.data: load addr=000008f8, load size=00000008 bytes, run addr=20000000, run size=00000004 bytes, compression=lzss


LINKER GENERATED HANDLER TABLE

__TI_handler_table @ 00000900 records: 2, size/record: 4, table size: 8
	index: 0, handler: __TI_decompress_lzss
	index: 1, handler: __TI_decompress_none


GLOBAL SYMBOLS: SORTED ALPHABETICALLY BY Name 

address   name                          
-------   ----                          
000004e1  ADC14_IRQHandler              
000004e1  ADC14_IRQHandler              
00000483  ADC_init                      
000008ef  AES256_IRQHandler             
000008ef  BusFault_Handler              
000008f5  C$$EXIT                       
000008ef  COMP_E0_IRQHandler            
000008ef  COMP_E1_IRQHandler            
000008ef  CS_IRQHandler                 
000008ef  DMA_ERR_IRQHandler            
000008ef  DMA_INT0_IRQHandler           
000008ef  DMA_INT1_IRQHandler           
000008ef  DMA_INT2_IRQHandler           
000008ef  DMA_INT3_IRQHandler           
000008ef  DebugMon_Handler              
000008ef  Default_Handler               
000008ef  EUSCIA0_IRQHandler            
000008ef  EUSCIA1_IRQHandler            
000008ef  EUSCIA2_IRQHandler            
000008ef  EUSCIA3_IRQHandler            
000008ef  EUSCIB0_IRQHandler            
000008ef  EUSCIB1_IRQHandler            
000008ef  EUSCIB2_IRQHandler            
000008ef  EUSCIB3_IRQHandler            
000008ef  FLCTL_IRQHandler              
000008ef  FPU_IRQHandler                
000008ef  HardFault_Handler             
000008ef  MemManage_Handler             
000008ef  NMI_Handler                   
000008ef  PCM_IRQHandler                
000008ef  PORT1_IRQHandler              
000008ef  PORT2_IRQHandler              
000008ef  PORT3_IRQHandler              
000008ef  PORT4_IRQHandler              
000008ef  PORT5_IRQHandler              
000008ef  PORT6_IRQHandler              
000008ef  PSS_IRQHandler                
00000625  PWM_init                      
00000663  PWM_servo                     
000008ef  PendSV_Handler                
000008ef  RTC_C_IRQHandler              
000008e3  Reset_Handler                 
000008ef  SVC_Handler                   
000008ef  SysTick_Handler               
20000000  SystemCoreClock               
000000e5  SystemCoreClockUpdate         
0000035d  SystemInit                    
000008ef  T32_INT1_IRQHandler           
000008ef  T32_INT2_IRQHandler           
000008ef  T32_INTC_IRQHandler           
000008ef  TA0_0_IRQHandler              
000008ef  TA0_N_IRQHandler              
000005ed  TA1_0_IRQHandler              
000005ed  TA1_0_IRQHandler              
000008ef  TA1_N_IRQHandler              
000008ef  TA2_0_IRQHandler              
000008ef  TA2_N_IRQHandler              
000008ef  TA3_0_IRQHandler              
000008ef  TA3_N_IRQHandler              
000008ef  UsageFault_Handler            
4000480c  WDTCTL_SYM                    
000008ef  WDT_A_IRQHandler              
20010000  __STACK_END                   
00000200  __STACK_SIZE                  
00000908  __TI_CINIT_Base               
00000910  __TI_CINIT_Limit              
00000900  __TI_Handler_Table_Base       
00000908  __TI_Handler_Table_Limit      
00000839  __TI_auto_init_nobinit_nopinit
00000781  __TI_decompress_lzss          
000008d5  __TI_decompress_none          
ffffffff  __TI_pprof_out_hndl           
ffffffff  __TI_prof_data_size           
ffffffff  __TI_prof_data_start          
00000000  __TI_static_base__            
000006e5  __aeabi_memcpy                
000006e5  __aeabi_memcpy4               
000006e5  __aeabi_memcpy8               
ffffffff  __binit__                     
ffffffff  __c_args__                    
UNDEFED   __mpu_init                    
2000fe00  __stack                       
20000000  __start___llvm_prf_cnts       
20000000  __stop___llvm_prf_cnts        
0000087d  _c_int00_noargs               
UNDEFED   _system_post_cinit            
000008f1  _system_pre_init              
000008f5  abort                         
ffffffff  binit                         
00000000  interruptVectors              
000007e9  joystick_init                 
000008b1  main                          
000006e5  memcpy                        
000004cb  set_ADC14_interrupt           
0000058b  set_timer                     
000005cb  set_timerA1_interrupt         
00000595  set_unit                      


GLOBAL SYMBOLS: SORTED BY Symbol Address 

address   name                          
-------   ----                          
00000000  __TI_static_base__            
00000000  interruptVectors              
000000e5  SystemCoreClockUpdate         
00000200  __STACK_SIZE                  
0000035d  SystemInit                    
00000483  ADC_init                      
000004cb  set_ADC14_interrupt           
000004e1  ADC14_IRQHandler              
000004e1  ADC14_IRQHandler              
0000058b  set_timer                     
00000595  set_unit                      
000005cb  set_timerA1_interrupt         
000005ed  TA1_0_IRQHandler              
000005ed  TA1_0_IRQHandler              
00000625  PWM_init                      
00000663  PWM_servo                     
000006e5  __aeabi_memcpy                
000006e5  __aeabi_memcpy4               
000006e5  __aeabi_memcpy8               
000006e5  memcpy                        
00000781  __TI_decompress_lzss          
000007e9  joystick_init                 
00000839  __TI_auto_init_nobinit_nopinit
0000087d  _c_int00_noargs               
000008b1  main                          
000008d5  __TI_decompress_none          
000008e3  Reset_Handler                 
000008ef  AES256_IRQHandler             
000008ef  BusFault_Handler              
000008ef  COMP_E0_IRQHandler            
000008ef  COMP_E1_IRQHandler            
000008ef  CS_IRQHandler                 
000008ef  DMA_ERR_IRQHandler            
000008ef  DMA_INT0_IRQHandler           
000008ef  DMA_INT1_IRQHandler           
000008ef  DMA_INT2_IRQHandler           
000008ef  DMA_INT3_IRQHandler           
000008ef  DebugMon_Handler              
000008ef  Default_Handler               
000008ef  EUSCIA0_IRQHandler            
000008ef  EUSCIA1_IRQHandler            
000008ef  EUSCIA2_IRQHandler            
000008ef  EUSCIA3_IRQHandler            
000008ef  EUSCIB0_IRQHandler            
000008ef  EUSCIB1_IRQHandler            
000008ef  EUSCIB2_IRQHandler            
000008ef  EUSCIB3_IRQHandler            
000008ef  FLCTL_IRQHandler              
000008ef  FPU_IRQHandler                
000008ef  HardFault_Handler             
000008ef  MemManage_Handler             
000008ef  NMI_Handler                   
000008ef  PCM_IRQHandler                
000008ef  PORT1_IRQHandler              
000008ef  PORT2_IRQHandler              
000008ef  PORT3_IRQHandler              
000008ef  PORT4_IRQHandler              
000008ef  PORT5_IRQHandler              
000008ef  PORT6_IRQHandler              
000008ef  PSS_IRQHandler                
000008ef  PendSV_Handler                
000008ef  RTC_C_IRQHandler              
000008ef  SVC_Handler                   
000008ef  SysTick_Handler               
000008ef  T32_INT1_IRQHandler           
000008ef  T32_INT2_IRQHandler           
000008ef  T32_INTC_IRQHandler           
000008ef  TA0_0_IRQHandler              
000008ef  TA0_N_IRQHandler              
000008ef  TA1_N_IRQHandler              
000008ef  TA2_0_IRQHandler              
000008ef  TA2_N_IRQHandler              
000008ef  TA3_0_IRQHandler              
000008ef  TA3_N_IRQHandler              
000008ef  UsageFault_Handler            
000008ef  WDT_A_IRQHandler              
000008f1  _system_pre_init              
000008f5  C$$EXIT                       
000008f5  abort                         
00000900  __TI_Handler_Table_Base       
00000908  __TI_CINIT_Base               
00000908  __TI_Handler_Table_Limit      
00000910  __TI_CINIT_Limit              
20000000  SystemCoreClock               
20000000  __start___llvm_prf_cnts       
20000000  __stop___llvm_prf_cnts        
2000fe00  __stack                       
20010000  __STACK_END                   
4000480c  WDTCTL_SYM                    
ffffffff  __TI_pprof_out_hndl           
ffffffff  __TI_prof_data_size           
ffffffff  __TI_prof_data_start          
ffffffff  __binit__                     
ffffffff  __c_args__                    
ffffffff  binit                         
UNDEFED   __mpu_init                    
UNDEFED   _system_post_cinit            

[97 symbols]
