******************************************************************************
                  TI ARM Linker PC v20.2.1                     
******************************************************************************
>> Linked Sun Sep 27 16:52:37 2020

OUTPUT FILE NAME:   <Laboratory_1.out>
ENTRY POINT SYMBOL: "_c_int00_noargs"  address: 00000655


MEMORY CONFIGURATION

         name            origin    length      used     unused   attr    fill
----------------------  --------  ---------  --------  --------  ----  --------
  MAIN                  00000000   00040000  000006dc  0003f924  R  X
  INFO                  00200000   00004000  00000000  00004000  R  X
  SRAM_CODE             01000000   00010000  00000204  0000fdfc  RW X
  SRAM_DATA             20000000   00010000  00000204  0000fdfc  RW  


SEGMENT ALLOCATION MAP

run origin  load origin   length   init length attrs members
----------  ----------- ---------- ----------- ----- -------
00000000    00000000    000006e0   000006e0    r-x
  00000000    00000000    000000e4   000000e4    r-- .intvecs
  000000e4    000000e4    000005e0   000005e0    r-x .text
  000006c8    000006c8    00000018   00000018    r-- .cinit
20000000    20000000    00000004   00000000    rw-
  20000000    20000000    00000004   00000000    rw- .data
2000fe00    2000fe00    00000200   00000000    rw-
  2000fe00    2000fe00    00000200   00000000    rw- .stack


SECTION ALLOCATION MAP

 output                                  attributes/
section   page    origin      length       input sections
--------  ----  ----------  ----------   ----------------
.intvecs   0    00000000    000000e4     
                  00000000    000000e4     startup_msp432p401r_ccs.obj (.intvecs:retain)

.text      0    000000e4    000005e0     
                  000000e4    00000334     system_msp432p401r.obj (.text)
                  00000418    000000f4     timer.obj (.text)
                  0000050c    0000009c     rtsv7M4_T_le_v4SPD16_eabi.lib : memcpy_t2.asm.obj (.text)
                  000005a8    00000068                                   : copy_decompress_lzss.c.obj (.text:decompress:lzss:__TI_decompress_lzss)
                  00000610    00000044                                   : autoinit.c.obj (.text:__TI_auto_init_nobinit_nopinit:__TI_auto_init_nobinit_nopinit)
                  00000654    00000034                                   : boot_cortex_m.c.obj (.text:_c_int00_noargs:_c_int00_noargs)
                  00000688    00000018     main.obj (.text)
                  000006a0    0000000e     rtsv7M4_T_le_v4SPD16_eabi.lib : copy_decompress_none.c.obj (.text:decompress:none:__TI_decompress_none)
                  000006ae    0000000e     startup_msp432p401r_ccs.obj (.text)
                  000006bc    00000004     rtsv7M4_T_le_v4SPD16_eabi.lib : pre_init.c.obj (.text:_system_pre_init)
                  000006c0    00000004                                   : exit.c.obj (.text:abort:abort)

.cinit     0    000006c8    00000018     
                  000006c8    00000008     (.cinit..data.load) [load image, compression = lzss]
                  000006d0    00000008     (__TI_handler_table)
                  000006d8    00000008     (__TI_cinit_table)

.init_array 
*          0    00000000    00000000     UNINITIALIZED

.binit     0    00000000    00000000     

.data      0    20000000    00000004     UNINITIALIZED
                  20000000    00000004     system_msp432p401r.obj (.data)

.stack     0    2000fe00    00000200     UNINITIALIZED
                  2000fe00    00000004     rtsv7M4_T_le_v4SPD16_eabi.lib : boot_cortex_m.c.obj (.stack)
                  2000fe04    000001fc     --HOLE--

__llvm_prf_cnts 
*          0    20000000    00000000     UNINITIALIZED

MODULE SUMMARY

       Module                        code   ro data   rw data
       ------                        ----   -------   -------
    .\
       system_msp432p401r.obj        820    0         8      
       startup_msp432p401r_ccs.obj   14     228       0      
    +--+-----------------------------+------+---------+---------+
       Total:                        834    228       8      
                                                             
    .\Sources\
       timer.obj                     244    0         0      
       main.obj                      24     0         0      
    +--+-----------------------------+------+---------+---------+
       Total:                        268    0         0      
                                                             
    D:\Programmes\TI\ccs\tools\compiler\ti-cgt-arm_20.2.1.LTS\lib\rtsv7M4_T_le_v4SPD16_eabi.lib
       memcpy_t2.asm.obj             156    0         0      
       copy_decompress_lzss.c.obj    104    0         0      
       autoinit.c.obj                68     0         0      
       boot_cortex_m.c.obj           52     0         0      
       copy_decompress_none.c.obj    14     0         0      
       exit.c.obj                    4      0         0      
       pre_init.c.obj                4      0         0      
    +--+-----------------------------+------+---------+---------+
       Total:                        402    0         0      
                                                             
       Stack:                        0      0         1024   
       Linker Generated:             0      24        0      
    +--+-----------------------------+------+---------+---------+
       Grand Total:                  1504   252       1032   


LINKER GENERATED COPY TABLES

__TI_cinit_table @ 000006d8 records: 1, size/record: 8, table size: 8
	.data: load addr=000006c8, load size=00000008 bytes, run addr=20000000, run size=00000004 bytes, compression=lzss


LINKER GENERATED HANDLER TABLE

__TI_handler_table @ 000006d0 records: 2, size/record: 4, table size: 8
	index: 0, handler: __TI_decompress_lzss
	index: 1, handler: __TI_decompress_none


GLOBAL SYMBOLS: SORTED ALPHABETICALLY BY Name 

address   name                          
-------   ----                          
000006bb  ADC14_IRQHandler              
000006bb  AES256_IRQHandler             
000006bb  BusFault_Handler              
000006c1  C$$EXIT                       
000006bb  COMP_E0_IRQHandler            
000006bb  COMP_E1_IRQHandler            
000006bb  CS_IRQHandler                 
000006bb  DMA_ERR_IRQHandler            
000006bb  DMA_INT0_IRQHandler           
000006bb  DMA_INT1_IRQHandler           
000006bb  DMA_INT2_IRQHandler           
000006bb  DMA_INT3_IRQHandler           
000006bb  DebugMon_Handler              
000006bb  Default_Handler               
000006bb  EUSCIA0_IRQHandler            
000006bb  EUSCIA1_IRQHandler            
000006bb  EUSCIA2_IRQHandler            
000006bb  EUSCIA3_IRQHandler            
000006bb  EUSCIB0_IRQHandler            
000006bb  EUSCIB1_IRQHandler            
000006bb  EUSCIB2_IRQHandler            
000006bb  EUSCIB3_IRQHandler            
000006bb  FLCTL_IRQHandler              
000006bb  FPU_IRQHandler                
000006bb  HardFault_Handler             
000006bb  MemManage_Handler             
000006bb  NMI_Handler                   
000006bb  PCM_IRQHandler                
000006bb  PORT1_IRQHandler              
000006bb  PORT2_IRQHandler              
000006bb  PORT3_IRQHandler              
000006bb  PORT4_IRQHandler              
000006bb  PORT5_IRQHandler              
000006bb  PORT6_IRQHandler              
000006bb  PSS_IRQHandler                
000006bb  PendSV_Handler                
000006bb  RTC_C_IRQHandler              
000006af  Reset_Handler                 
000006bb  SVC_Handler                   
000006bb  SysTick_Handler               
20000000  SystemCoreClock               
000000e5  SystemCoreClockUpdate         
0000035d  SystemInit                    
000006bb  T32_INT1_IRQHandler           
000006bb  T32_INT2_IRQHandler           
000006bb  T32_INTC_IRQHandler           
000004e7  TA0_0_IRQHandler              
000004e7  TA0_0_IRQHandler              
000006bb  TA0_N_IRQHandler              
000006bb  TA1_0_IRQHandler              
000006bb  TA1_N_IRQHandler              
000006bb  TA2_0_IRQHandler              
000006bb  TA2_N_IRQHandler              
000006bb  TA3_0_IRQHandler              
000006bb  TA3_N_IRQHandler              
000006bb  UsageFault_Handler            
4000480c  WDTCTL_SYM                    
000006bb  WDT_A_IRQHandler              
20010000  __STACK_END                   
00000200  __STACK_SIZE                  
000006d8  __TI_CINIT_Base               
000006e0  __TI_CINIT_Limit              
000006d0  __TI_Handler_Table_Base       
000006d8  __TI_Handler_Table_Limit      
00000611  __TI_auto_init_nobinit_nopinit
000005a9  __TI_decompress_lzss          
000006a1  __TI_decompress_none          
ffffffff  __TI_pprof_out_hndl           
ffffffff  __TI_prof_data_size           
ffffffff  __TI_prof_data_start          
00000000  __TI_static_base__            
0000050d  __aeabi_memcpy                
0000050d  __aeabi_memcpy4               
0000050d  __aeabi_memcpy8               
ffffffff  __binit__                     
ffffffff  __c_args__                    
UNDEFED   __mpu_init                    
2000fe00  __stack                       
20000000  __start___llvm_prf_cnts       
20000000  __stop___llvm_prf_cnts        
00000655  _c_int00_noargs               
UNDEFED   _system_post_cinit            
000006bd  _system_pre_init              
000006c1  abort                         
ffffffff  binit                         
00000000  interruptVectors              
00000689  main                          
0000050d  memcpy                        
00000483  set_timer                     
000004c5  set_timerA0_interrupt         
0000048f  set_unit                      


GLOBAL SYMBOLS: SORTED BY Symbol Address 

address   name                          
-------   ----                          
00000000  __TI_static_base__            
00000000  interruptVectors              
000000e5  SystemCoreClockUpdate         
00000200  __STACK_SIZE                  
0000035d  SystemInit                    
00000483  set_timer                     
0000048f  set_unit                      
000004c5  set_timerA0_interrupt         
000004e7  TA0_0_IRQHandler              
000004e7  TA0_0_IRQHandler              
0000050d  __aeabi_memcpy                
0000050d  __aeabi_memcpy4               
0000050d  __aeabi_memcpy8               
0000050d  memcpy                        
000005a9  __TI_decompress_lzss          
00000611  __TI_auto_init_nobinit_nopinit
00000655  _c_int00_noargs               
00000689  main                          
000006a1  __TI_decompress_none          
000006af  Reset_Handler                 
000006bb  ADC14_IRQHandler              
000006bb  AES256_IRQHandler             
000006bb  BusFault_Handler              
000006bb  COMP_E0_IRQHandler            
000006bb  COMP_E1_IRQHandler            
000006bb  CS_IRQHandler                 
000006bb  DMA_ERR_IRQHandler            
000006bb  DMA_INT0_IRQHandler           
000006bb  DMA_INT1_IRQHandler           
000006bb  DMA_INT2_IRQHandler           
000006bb  DMA_INT3_IRQHandler           
000006bb  DebugMon_Handler              
000006bb  Default_Handler               
000006bb  EUSCIA0_IRQHandler            
000006bb  EUSCIA1_IRQHandler            
000006bb  EUSCIA2_IRQHandler            
000006bb  EUSCIA3_IRQHandler            
000006bb  EUSCIB0_IRQHandler            
000006bb  EUSCIB1_IRQHandler            
000006bb  EUSCIB2_IRQHandler            
000006bb  EUSCIB3_IRQHandler            
000006bb  FLCTL_IRQHandler              
000006bb  FPU_IRQHandler                
000006bb  HardFault_Handler             
000006bb  MemManage_Handler             
000006bb  NMI_Handler                   
000006bb  PCM_IRQHandler                
000006bb  PORT1_IRQHandler              
000006bb  PORT2_IRQHandler              
000006bb  PORT3_IRQHandler              
000006bb  PORT4_IRQHandler              
000006bb  PORT5_IRQHandler              
000006bb  PORT6_IRQHandler              
000006bb  PSS_IRQHandler                
000006bb  PendSV_Handler                
000006bb  RTC_C_IRQHandler              
000006bb  SVC_Handler                   
000006bb  SysTick_Handler               
000006bb  T32_INT1_IRQHandler           
000006bb  T32_INT2_IRQHandler           
000006bb  T32_INTC_IRQHandler           
000006bb  TA0_N_IRQHandler              
000006bb  TA1_0_IRQHandler              
000006bb  TA1_N_IRQHandler              
000006bb  TA2_0_IRQHandler              
000006bb  TA2_N_IRQHandler              
000006bb  TA3_0_IRQHandler              
000006bb  TA3_N_IRQHandler              
000006bb  UsageFault_Handler            
000006bb  WDT_A_IRQHandler              
000006bd  _system_pre_init              
000006c1  C$$EXIT                       
000006c1  abort                         
000006d0  __TI_Handler_Table_Base       
000006d8  __TI_CINIT_Base               
000006d8  __TI_Handler_Table_Limit      
000006e0  __TI_CINIT_Limit              
20000000  SystemCoreClock               
20000000  __start___llvm_prf_cnts       
20000000  __stop___llvm_prf_cnts        
2000fe00  __stack                       
20010000  __STACK_END                   
4000480c  WDTCTL_SYM                    
ffffffff  __TI_pprof_out_hndl           
ffffffff  __TI_prof_data_size           
ffffffff  __TI_prof_data_start          
ffffffff  __binit__                     
ffffffff  __c_args__                    
ffffffff  binit                         
UNDEFED   __mpu_init                    
UNDEFED   _system_post_cinit            

[91 symbols]
